{
    "contractName": "GoodGhostingPolygon",
    "abi": [
        {
            "inputs": [
                {
                    "internalType": "contract IERC20",
                    "name": "_inboundCurrency",
                    "type": "address"
                },
                {
                    "internalType": "contract ILendingPoolAddressesProvider",
                    "name": "_lendingPoolAddressProvider",
                    "type": "address"
                },
                {
                    "internalType": "uint256",
                    "name": "_segmentCount",
                    "type": "uint256"
                },
                {
                    "internalType": "uint256",
                    "name": "_segmentLength",
                    "type": "uint256"
                },
                {
                    "internalType": "uint256",
                    "name": "_segmentPayment",
                    "type": "uint256"
                },
                {
                    "internalType": "uint256",
                    "name": "_earlyWithdrawalFee",
                    "type": "uint256"
                },
                {
                    "internalType": "uint256",
                    "name": "_customFee",
                    "type": "uint256"
                },
                {
                    "internalType": "address",
                    "name": "_dataProvider",
                    "type": "address"
                },
                {
                    "internalType": "uint256",
                    "name": "_maxPlayersCount",
                    "type": "uint256"
                },
                {
                    "internalType": "address",
                    "name": "_incentiveController",
                    "type": "address"
                },
                {
                    "internalType": "contract IERC20",
                    "name": "_matic",
                    "type": "address"
                }
            ],
            "stateMutability": "nonpayable",
            "type": "constructor"
        },
        {
            "anonymous": false,
            "inputs": [
                {
                    "indexed": true,
                    "internalType": "address",
                    "name": "admin",
                    "type": "address"
                },
                {
                    "indexed": false,
                    "internalType": "uint256",
                    "name": "totalGameInterest",
                    "type": "uint256"
                },
                {
                    "indexed": false,
                    "internalType": "uint256",
                    "name": "adminFeeAmount",
                    "type": "uint256"
                }
            ],
            "name": "AdminWithdrawal",
            "type": "event"
        },
        {
            "anonymous": false,
            "inputs": [
                {
                    "indexed": true,
                    "internalType": "address",
                    "name": "player",
                    "type": "address"
                },
                {
                    "indexed": true,
                    "internalType": "uint256",
                    "name": "segment",
                    "type": "uint256"
                },
                {
                    "indexed": false,
                    "internalType": "uint256",
                    "name": "amount",
                    "type": "uint256"
                }
            ],
            "name": "Deposit",
            "type": "event"
        },
        {
            "anonymous": false,
            "inputs": [
                {
                    "indexed": true,
                    "internalType": "address",
                    "name": "player",
                    "type": "address"
                },
                {
                    "indexed": false,
                    "internalType": "uint256",
                    "name": "amount",
                    "type": "uint256"
                },
                {
                    "indexed": false,
                    "internalType": "uint256",
                    "name": "totalGamePrincipal",
                    "type": "uint256"
                }
            ],
            "name": "EarlyWithdrawal",
            "type": "event"
        },
        {
            "anonymous": false,
            "inputs": [
                {
                    "indexed": false,
                    "internalType": "uint256",
                    "name": "totalAmount",
                    "type": "uint256"
                },
                {
                    "indexed": false,
                    "internalType": "uint256",
                    "name": "totalGamePrincipal",
                    "type": "uint256"
                },
                {
                    "indexed": false,
                    "internalType": "uint256",
                    "name": "totalGameInterest",
                    "type": "uint256"
                },
                {
                    "indexed": false,
                    "internalType": "uint256",
                    "name": "rewards",
                    "type": "uint256"
                }
            ],
            "name": "FundsRedeemedFromExternalPool",
            "type": "event"
        },
        {
            "anonymous": false,
            "inputs": [
                {
                    "indexed": true,
                    "internalType": "address",
                    "name": "player",
                    "type": "address"
                },
                {
                    "indexed": false,
                    "internalType": "uint256",
                    "name": "amount",
                    "type": "uint256"
                }
            ],
            "name": "JoinedGame",
            "type": "event"
        },
        {
            "anonymous": false,
            "inputs": [
                {
                    "indexed": true,
                    "internalType": "address",
                    "name": "previousOwner",
                    "type": "address"
                },
                {
                    "indexed": true,
                    "internalType": "address",
                    "name": "newOwner",
                    "type": "address"
                }
            ],
            "name": "OwnershipTransferred",
            "type": "event"
        },
        {
            "anonymous": false,
            "inputs": [
                {
                    "indexed": false,
                    "internalType": "address",
                    "name": "account",
                    "type": "address"
                }
            ],
            "name": "Paused",
            "type": "event"
        },
        {
            "anonymous": false,
            "inputs": [
                {
                    "indexed": false,
                    "internalType": "address",
                    "name": "account",
                    "type": "address"
                }
            ],
            "name": "Unpaused",
            "type": "event"
        },
        {
            "anonymous": false,
            "inputs": [
                {
                    "indexed": false,
                    "internalType": "address[]",
                    "name": "winners",
                    "type": "address[]"
                }
            ],
            "name": "WinnersAnnouncement",
            "type": "event"
        },
        {
            "anonymous": false,
            "inputs": [
                {
                    "indexed": true,
                    "internalType": "address",
                    "name": "player",
                    "type": "address"
                },
                {
                    "indexed": false,
                    "internalType": "uint256",
                    "name": "amount",
                    "type": "uint256"
                },
                {
                    "indexed": false,
                    "internalType": "uint256",
                    "name": "playerReward",
                    "type": "uint256"
                }
            ],
            "name": "Withdrawal",
            "type": "event"
        },
        {
            "inputs": [],
            "name": "adaiToken",
            "outputs": [
                {
                    "internalType": "contract AToken",
                    "name": "",
                    "type": "address"
                }
            ],
            "stateMutability": "view",
            "type": "function",
            "constant": true
        },
        {
            "inputs": [],
            "name": "adminFeeAmount",
            "outputs": [
                {
                    "internalType": "uint256",
                    "name": "",
                    "type": "uint256"
                }
            ],
            "stateMutability": "view",
            "type": "function",
            "constant": true
        },
        {
            "inputs": [],
            "name": "adminWithdraw",
            "outputs": [
                {
                    "internalType": "bool",
                    "name": "",
                    "type": "bool"
                }
            ],
            "stateMutability": "view",
            "type": "function",
            "constant": true
        },
        {
            "inputs": [],
            "name": "customFee",
            "outputs": [
                {
                    "internalType": "uint256",
                    "name": "",
                    "type": "uint256"
                }
            ],
            "stateMutability": "view",
            "type": "function",
            "constant": true
        },
        {
            "inputs": [],
            "name": "daiToken",
            "outputs": [
                {
                    "internalType": "contract IERC20",
                    "name": "",
                    "type": "address"
                }
            ],
            "stateMutability": "view",
            "type": "function",
            "constant": true
        },
        {
            "inputs": [],
            "name": "earlyWithdraw",
            "outputs": [],
            "stateMutability": "nonpayable",
            "type": "function"
        },
        {
            "inputs": [],
            "name": "earlyWithdrawalFee",
            "outputs": [
                {
                    "internalType": "uint256",
                    "name": "",
                    "type": "uint256"
                }
            ],
            "stateMutability": "view",
            "type": "function",
            "constant": true
        },
        {
            "inputs": [],
            "name": "firstSegmentStart",
            "outputs": [
                {
                    "internalType": "uint256",
                    "name": "",
                    "type": "uint256"
                }
            ],
            "stateMutability": "view",
            "type": "function",
            "constant": true
        },
        {
            "inputs": [],
            "name": "getCurrentSegment",
            "outputs": [
                {
                    "internalType": "uint256",
                    "name": "",
                    "type": "uint256"
                }
            ],
            "stateMutability": "view",
            "type": "function",
            "constant": true
        },
        {
            "inputs": [],
            "name": "getNumberOfPlayers",
            "outputs": [
                {
                    "internalType": "uint256",
                    "name": "",
                    "type": "uint256"
                }
            ],
            "stateMutability": "view",
            "type": "function",
            "constant": true
        },
        {
            "inputs": [],
            "name": "incentiveController",
            "outputs": [
                {
                    "internalType": "contract IncentiveController",
                    "name": "",
                    "type": "address"
                }
            ],
            "stateMutability": "view",
            "type": "function",
            "constant": true
        },
        {
            "inputs": [],
            "name": "isGameCompleted",
            "outputs": [
                {
                    "internalType": "bool",
                    "name": "",
                    "type": "bool"
                }
            ],
            "stateMutability": "view",
            "type": "function",
            "constant": true
        },
        {
            "inputs": [
                {
                    "internalType": "uint256",
                    "name": "",
                    "type": "uint256"
                }
            ],
            "name": "iterablePlayers",
            "outputs": [
                {
                    "internalType": "address",
                    "name": "",
                    "type": "address"
                }
            ],
            "stateMutability": "view",
            "type": "function",
            "constant": true
        },
        {
            "inputs": [],
            "name": "joinGame",
            "outputs": [],
            "stateMutability": "nonpayable",
            "type": "function"
        },
        {
            "inputs": [],
            "name": "lastSegment",
            "outputs": [
                {
                    "internalType": "uint256",
                    "name": "",
                    "type": "uint256"
                }
            ],
            "stateMutability": "view",
            "type": "function",
            "constant": true
        },
        {
            "inputs": [],
            "name": "lendingPool",
            "outputs": [
                {
                    "internalType": "contract ILendingPool",
                    "name": "",
                    "type": "address"
                }
            ],
            "stateMutability": "view",
            "type": "function",
            "constant": true
        },
        {
            "inputs": [],
            "name": "lendingPoolAddressProvider",
            "outputs": [
                {
                    "internalType": "contract ILendingPoolAddressesProvider",
                    "name": "",
                    "type": "address"
                }
            ],
            "stateMutability": "view",
            "type": "function",
            "constant": true
        },
        {
            "inputs": [],
            "name": "makeDeposit",
            "outputs": [],
            "stateMutability": "nonpayable",
            "type": "function"
        },
        {
            "inputs": [],
            "name": "matic",
            "outputs": [
                {
                    "internalType": "contract IERC20",
                    "name": "",
                    "type": "address"
                }
            ],
            "stateMutability": "view",
            "type": "function",
            "constant": true
        },
        {
            "inputs": [],
            "name": "maxPlayersCount",
            "outputs": [
                {
                    "internalType": "uint256",
                    "name": "",
                    "type": "uint256"
                }
            ],
            "stateMutability": "view",
            "type": "function",
            "constant": true
        },
        {
            "inputs": [],
            "name": "owner",
            "outputs": [
                {
                    "internalType": "address",
                    "name": "",
                    "type": "address"
                }
            ],
            "stateMutability": "view",
            "type": "function",
            "constant": true
        },
        {
            "inputs": [],
            "name": "pause",
            "outputs": [],
            "stateMutability": "nonpayable",
            "type": "function"
        },
        {
            "inputs": [],
            "name": "paused",
            "outputs": [
                {
                    "internalType": "bool",
                    "name": "",
                    "type": "bool"
                }
            ],
            "stateMutability": "view",
            "type": "function",
            "constant": true
        },
        {
            "inputs": [
                {
                    "internalType": "address",
                    "name": "",
                    "type": "address"
                }
            ],
            "name": "players",
            "outputs": [
                {
                    "internalType": "address",
                    "name": "addr",
                    "type": "address"
                },
                {
                    "internalType": "bool",
                    "name": "withdrawn",
                    "type": "bool"
                },
                {
                    "internalType": "bool",
                    "name": "canRejoin",
                    "type": "bool"
                },
                {
                    "internalType": "uint256",
                    "name": "mostRecentSegmentPaid",
                    "type": "uint256"
                },
                {
                    "internalType": "uint256",
                    "name": "amountPaid",
                    "type": "uint256"
                }
            ],
            "stateMutability": "view",
            "type": "function",
            "constant": true
        },
        {
            "inputs": [],
            "name": "redeemed",
            "outputs": [
                {
                    "internalType": "bool",
                    "name": "",
                    "type": "bool"
                }
            ],
            "stateMutability": "view",
            "type": "function",
            "constant": true
        },
        {
            "inputs": [],
            "name": "renounceOwnership",
            "outputs": [],
            "stateMutability": "nonpayable",
            "type": "function"
        },
        {
            "inputs": [],
            "name": "rewardsPerPlayer",
            "outputs": [
                {
                    "internalType": "uint256",
                    "name": "",
                    "type": "uint256"
                }
            ],
            "stateMutability": "view",
            "type": "function",
            "constant": true
        },
        {
            "inputs": [],
            "name": "segmentLength",
            "outputs": [
                {
                    "internalType": "uint256",
                    "name": "",
                    "type": "uint256"
                }
            ],
            "stateMutability": "view",
            "type": "function",
            "constant": true
        },
        {
            "inputs": [],
            "name": "segmentPayment",
            "outputs": [
                {
                    "internalType": "uint256",
                    "name": "",
                    "type": "uint256"
                }
            ],
            "stateMutability": "view",
            "type": "function",
            "constant": true
        },
        {
            "inputs": [],
            "name": "totalGameInterest",
            "outputs": [
                {
                    "internalType": "uint256",
                    "name": "",
                    "type": "uint256"
                }
            ],
            "stateMutability": "view",
            "type": "function",
            "constant": true
        },
        {
            "inputs": [],
            "name": "totalGamePrincipal",
            "outputs": [
                {
                    "internalType": "uint256",
                    "name": "",
                    "type": "uint256"
                }
            ],
            "stateMutability": "view",
            "type": "function",
            "constant": true
        },
        {
            "inputs": [
                {
                    "internalType": "address",
                    "name": "newOwner",
                    "type": "address"
                }
            ],
            "name": "transferOwnership",
            "outputs": [],
            "stateMutability": "nonpayable",
            "type": "function"
        },
        {
            "inputs": [],
            "name": "unpause",
            "outputs": [],
            "stateMutability": "nonpayable",
            "type": "function"
        },
        {
            "inputs": [
                {
                    "internalType": "uint256",
                    "name": "",
                    "type": "uint256"
                }
            ],
            "name": "winners",
            "outputs": [
                {
                    "internalType": "address",
                    "name": "",
                    "type": "address"
                }
            ],
            "stateMutability": "view",
            "type": "function",
            "constant": true
        },
        {
            "inputs": [],
            "name": "adminFeeWithdraw",
            "outputs": [],
            "stateMutability": "nonpayable",
            "type": "function"
        },
        {
            "inputs": [],
            "name": "withdraw",
            "outputs": [],
            "stateMutability": "nonpayable",
            "type": "function"
        },
        {
            "inputs": [],
            "name": "redeemFromExternalPool",
            "outputs": [],
            "stateMutability": "nonpayable",
            "type": "function"
        }
    ],
    "bytecode": "0x6101e06040523480156200001257600080fd5b50604051620032543803806200325483398181016040526101608110156200003957600080fd5b508051602082015160408301516060840151608085015160a086015160c087015160e08801516101008901516101208a0151610140909a0151989997989697959694959394929391929091908a8a8a8a8a8a8a8a8a6000620000a36001600160e01b03620003e216565b600080546001600160a01b0319166001600160a01b0383169081178255604051929350917f8be0079c531659141344cd1fd0a4f28419497f9722a3daafe3b4186f6b6457e0908290a3506000805460ff60a01b1916905560148311156200010957600080fd5b600a8411156200011857600080fd5b600084116200012657600080fd5b60008111620001675760405162461bcd60e51b815260040180806020018281038252602a81526020018062003201602a913960400191505060405180910390fd5b426101205261010087905261014086905260e08590526101608490526101808390526001600160601b031960608a811b821660805289901b1660c05260408051630261bf8b60e01b8152905183916001600160a01b038b1691630261bf8b91600480820192602092909190829003018186803b158015620001e757600080fd5b505afa158015620001fc573d6000803e3d6000fd5b505050506040513d60208110156200021357600080fd5b505160048054610100600160a81b0319166101006001600160a01b0393841602178155604080516334924edb60e21b81528d8416928101929092525160009284169163d2493b6c916024808301926060929190829003018186803b1580156200027b57600080fd5b505afa15801562000290573d6000803e3d6000fd5b505050506040513d6060811015620002a757600080fd5b5051606081901b6001600160601b03191660a0526101a0849052600480546040805163095ea7b360e01b81526001600160a01b0361010090930483169381019390935260001960248401819052905193945092908e169163095ea7b39160448083019260209291908290030181600087803b1580156200032657600080fd5b505af11580156200033b573d6000803e3d6000fd5b505050506040513d60208110156200035257600080fd5b5051620003915760405162461bcd60e51b81526004018080602001828103825260298152602001806200322b6029913960400191505060405180910390fd5b5050600880546001600160a01b0319166001600160a01b039d909d169c909c17909b55505050505060609490941b6001600160601b0319166101c05250620003e69c50505050505050505050505050565b3390565b60805160601c60a05160601c60c05160601c60e05161010051610120516101405161016051610180516101a0516101c05160601c612cf36200050e60003980610b5c52806112d352806116b952806117385280611ebd52508061116552806129465250806110465280611f5a5280611f8952508061065f528061089e52508061134c528061199b525080610c0d52806119c05250806104a952806109b95280610e2d5280610f40528061131d5250806104855280610fc9528061234a5280612451528061249a52806124fc528061265052806129a85250806110705250806112a25280611ac45280611bfd52508061074252806107e65280610a8052806112f752806115a15280611b585280611e245280612374528061252c52806126265250612cf36000f3fe608060405234801561001057600080fd5b50600436106102775760003560e01c806395224b3311610160578063d30858f1116100d8578063f18d20be1161008c578063f5c9786711610071578063f5c978671461046b578063f8dd5ad314610473578063fd6673f51461047b57610277565b8063f18d20be1461043d578063f2fde38b1461044557610277565b8063e0236a18116100bd578063e0236a18146103d2578063e231bff0146103da578063e2eb41ff146103e257610277565b8063d30858f1146103c2578063d4f77b1c146103ca57610277565b8063aad739f51161012f578063be22f54611610114578063be22f546146103aa578063c39b583c146103b2578063d013666e146103ba57610277565b8063aad739f514610385578063b6b0b097146103a257610277565b806395224b3314610350578063a2fb117514610358578063a59a997314610375578063a98a5c941461037d57610277565b80635c975abb116101f3578063715018a6116101c25780637c80e6da116101a75780637c80e6da146103385780638456cb59146103405780638da5cb5b1461034857610277565b8063715018a6146103285780637a23032c1461033057610277565b80635c975abb146102f45780635edafd5a146103105780635faeea3714610318578063633803001461032057610277565b80633ccfd60b1161024a5780633f4ba83a1161022f5780633f4ba83a146102c057806340732c89146102c85780635b9fe37f146102d057610277565b80633ccfd60b146102b05780633e7433eb146102b857610277565b80630c8ac6451461027c57806311b2e2d91461029657806315d74bb31461029e57806316330d40146102a8575b600080fd5b610284610483565b60408051918252519081900360200190f35b6102846104a7565b6102a66104cb565b005b61028461089c565b6102a66108c0565b610284610c0b565b6102a6610c2f565b6102a6610d06565b6102d8611025565b604080516001600160a01b039092168252519081900360200190f35b6102fc611034565b604080519115158252519081900360200190f35b610284611044565b610284611068565b6102d861106e565b6102a6611092565b61028461115d565b610284611163565b6102a6611187565b6102d8611250565b61028461125f565b6102d86004803603602081101561036e57600080fd5b5035611265565b6102d861128c565b6102d86112a0565b6102d86004803603602081101561039b57600080fd5b50356112c4565b6102d86112d1565b6102d86112f5565b6102fc611319565b61028461134a565b61028461136e565b6102a6611374565b6102a66113c9565b6102fc61181c565b610408600480360360208110156103f857600080fd5b50356001600160a01b031661182c565b604080516001600160a01b03909616865293151560208601529115158484015260608401526080830152519081900360a00190f35b6102fc61186a565b6102a66004803603602081101561045b57600080fd5b50356001600160a01b0316611873565b610284611994565b6102a66119ef565b6102846120dd565b7f000000000000000000000000000000000000000000000000000000000000000081565b7f000000000000000000000000000000000000000000000000000000000000000081565b6104d3611034565b15610518576040805162461bcd60e51b815260206004820152601060248201526f14185d5cd8589b194e881c185d5cd95960821b604482015290519081900360640190fd5b610520611319565b15610572576040805162461bcd60e51b815260206004820152601960248201527f47616d6520697320616c726561647920636f6d706c6574656400000000000000604482015290519081900360640190fd5b33600090815260056020526040902060028101546105d7576040805162461bcd60e51b815260206004820152601560248201527f506c6179657220646f6573206e6f742065786973740000000000000000000000604482015290519081900360640190fd5b8054600160a01b900460ff1615610635576040805162461bcd60e51b815260206004820152601c60248201527f506c617965722068617320616c72656164792077697468647261776e00000000604482015290519081900360640190fd5b805460ff60a01b1916600160a01b17815560028101546000906106a69061069590606490610689907f000000000000000000000000000000000000000000000000000000000000000063ffffffff6120e316565b9063ffffffff61214516565b60028401549063ffffffff6121ac16565b90506106c182600201546002546121ac90919063ffffffff16565b60025560006106ce611994565b9050806106e757825460ff60a81b1916600160a81b1783555b600254604080518481526020810192909252805133927f1670585e36568ede58d159518ce92cad99f75ad41c7d8281df3dd4eaa0c855d092908290030190a26004805460408051631a4ca37b60e21b81526001600160a01b037f0000000000000000000000000000000000000000000000000000000000000000811694820194909452602481018690523060448201529051610100909204909216916369328dec91606480830192600092919082900301818387803b1580156107a957600080fd5b505af11580156107bd573d6000803e3d6000fd5b50506040805163a9059cbb60e01b81523360048201526024810186905290516001600160a01b037f000000000000000000000000000000000000000000000000000000000000000016935063a9059cbb925060448083019260209291908290030181600087803b15801561083057600080fd5b505af1158015610844573d6000803e3d6000fd5b505050506040513d602081101561085a57600080fd5b50516108975760405162461bcd60e51b815260040180806020018281038252602f815260200180612a5a602f913960400191505060405180910390fd5b505050565b7f000000000000000000000000000000000000000000000000000000000000000081565b3360009081526005602052604090206002810154610925576040805162461bcd60e51b815260206004820152601560248201527f506c6179657220646f6573206e6f742065786973740000000000000000000000604482015290519081900360640190fd5b8054600160a01b900460ff1615610983576040805162461bcd60e51b815260206004820152601c60248201527f506c617965722068617320616c72656164792077697468647261776e00000000604482015290519081900360640190fd5b805460ff60a01b1916600160a01b178155600054600160a81b900460ff166109ad576109ad6119ef565b600281015460006109e57f0000000000000000000000000000000000000000000000000000000000000000600163ffffffff6121ac16565b83600101541415610a1f57600754600154610a1791610a0a919063ffffffff61214516565b839063ffffffff61220916565b915060095490505b6040805183815260208101839052815133927fdf273cb619d95419a9cd0ec88123a0538c85064229baa6363788f743fff90deb928290030190a26040805163a9059cbb60e01b81523360048201526024810184905290516001600160a01b037f0000000000000000000000000000000000000000000000000000000000000000169163a9059cbb9160448083019260209291908290030181600087803b158015610ac857600080fd5b505af1158015610adc573d6000803e3d6000fd5b505050506040513d6020811015610af257600080fd5b5051610b2f5760405162461bcd60e51b8152600401808060200182810382526029815260200180612b6d6029913960400191505060405180910390fd5b8015610897576040805163a9059cbb60e01b81523360048201526024810183905290516001600160a01b037f0000000000000000000000000000000000000000000000000000000000000000169163a9059cbb9160448083019260209291908290030181600087803b158015610ba457600080fd5b505af1158015610bb8573d6000803e3d6000fd5b505050506040513d6020811015610bce57600080fd5b50516108975760405162461bcd60e51b815260040180806020018281038252602a815260200180612bb7602a913960400191505060405180910390fd5b7f000000000000000000000000000000000000000000000000000000000000000081565b610c37612263565b6001600160a01b0316610c48611250565b6001600160a01b031614610ca3576040805162461bcd60e51b815260206004820181905260248201527f4f776e61626c653a2063616c6c6572206973206e6f7420746865206f776e6572604482015290519081900360640190fd5b610cab611034565b610cfc576040805162461bcd60e51b815260206004820152601460248201527f5061757361626c653a206e6f7420706175736564000000000000000000000000604482015290519081900360640190fd5b610d04612267565b565b610d0e611034565b15610d53576040805162461bcd60e51b815260206004820152601060248201526f14185d5cd8589b194e881c185d5cd95960821b604482015290519081900360640190fd5b33600090815260056020526040902054600160a01b900460ff1615610da95760405162461bcd60e51b8152600401808060200182810382526021815260200180612c246021913960400191505060405180910390fd5b336000818152600560205260409020546001600160a01b031614610e14576040805162461bcd60e51b815260206004820152601660248201527f53656e646572206973206e6f74206120706c6179657200000000000000000000604482015290519081900360640190fd5b6000610e1e611994565b9050600081118015610e4f57507f000000000000000000000000000000000000000000000000000000000000000081105b610e8a5760405162461bcd60e51b8152600401808060200182810382526046815260200180612b026046913960600191505060405180910390fd5b33600090815260056020526040902060010154811415610edb5760405162461bcd60e51b8152600401808060200182810382526023815260200180612c686023913960400191505060405180910390fd5b610eec81600163ffffffff6121ac16565b3360009081526005602052604090206001015414610f3b5760405162461bcd60e51b8152600401808060200182810382526033815260200180612c8b6033913960400191505060405180910390fd5b610f6c7f0000000000000000000000000000000000000000000000000000000000000000600163ffffffff6121ac16565b811415610fc357600780546001810182556000919091527fa66cc928b5edb82af9bd49922954155ab7b0942694bea4ce44661d9a8736c68801805473ffffffffffffffffffffffffffffffffffffffff1916331790555b604080517f000000000000000000000000000000000000000000000000000000000000000081529051829133917f90890809c654f11d6e72a28fa60149770a0d11ec6c92319d6ceb2bb0a4ea1a159181900360200190a3611022612313565b50565b6008546001600160a01b031681565b600054600160a01b900460ff1690565b7f000000000000000000000000000000000000000000000000000000000000000081565b60025481565b7f000000000000000000000000000000000000000000000000000000000000000081565b61109a612263565b6001600160a01b03166110ab611250565b6001600160a01b031614611106576040805162461bcd60e51b815260206004820181905260248201527f4f776e61626c653a2063616c6c6572206973206e6f7420746865206f776e6572604482015290519081900360640190fd5b600080546040516001600160a01b03909116907f8be0079c531659141344cd1fd0a4f28419497f9722a3daafe3b4186f6b6457e0908390a36000805473ffffffffffffffffffffffffffffffffffffffff19169055565b60035481565b7f000000000000000000000000000000000000000000000000000000000000000081565b61118f612263565b6001600160a01b03166111a0611250565b6001600160a01b0316146111fb576040805162461bcd60e51b815260206004820181905260248201527f4f776e61626c653a2063616c6c6572206973206e6f7420746865206f776e6572604482015290519081900360640190fd5b611203611034565b15611248576040805162461bcd60e51b815260206004820152601060248201526f14185d5cd8589b194e881c185d5cd95960821b604482015290519081900360640190fd5b610d046126ce565b6000546001600160a01b031690565b60015481565b6007818154811061127257fe5b6000918252602090912001546001600160a01b0316905081565b60045461010090046001600160a01b031681565b7f000000000000000000000000000000000000000000000000000000000000000081565b6006818154811061127257fe5b7f000000000000000000000000000000000000000000000000000000000000000081565b7f000000000000000000000000000000000000000000000000000000000000000081565b60007f0000000000000000000000000000000000000000000000000000000000000000611344611994565b11905090565b7f000000000000000000000000000000000000000000000000000000000000000081565b60095481565b61137c611034565b156113c1576040805162461bcd60e51b815260206004820152601060248201526f14185d5cd8589b194e881c185d5cd95960821b604482015290519081900360640190fd5b610d04612757565b6113d1612263565b6001600160a01b03166113e2611250565b6001600160a01b03161461143d576040805162461bcd60e51b815260206004820181905260248201527f4f776e61626c653a2063616c6c6572206973206e6f7420746865206f776e6572604482015290519081900360640190fd5b611445611319565b611496576040805162461bcd60e51b815260206004820152601560248201527f47616d65206973206e6f7420636f6d706c657465640000000000000000000000604482015290519081900360640190fd5b600054600160a81b900460ff166114de5760405162461bcd60e51b8152600401808060200182810382526025815260200180612b486025913960400191505060405180910390fd5b60045460ff1615611536576040805162461bcd60e51b815260206004820152601b60248201527f41646d696e2068617320616c72656164792077697468647261776e0000000000604482015290519081900360640190fd5b6004805460ff1916600117905561154b611250565b6001600160a01b03167f766b63950f3939375480c9204d7b6bfb28296ac63930596ff0a547026e1d8936600154600354604051808381526020018281526020019250505060405180910390a26003541561168f577f00000000000000000000000000000000000000000000000000000000000000006001600160a01b031663a9059cbb6115d6611250565b6003546040518363ffffffff1660e01b815260040180836001600160a01b03166001600160a01b0316815260200182815260200192505050602060405180830381600087803b15801561162857600080fd5b505af115801561163c573d6000803e3d6000fd5b505050506040513d602081101561165257600080fd5b505161168f5760405162461bcd60e51b8152600401808060200182810382526025815260200180612add6025913960400191505060405180910390fd5b600954610d0457604080516370a0823160e01b815230600482015290516000916001600160a01b037f000000000000000000000000000000000000000000000000000000000000000016916370a0823191602480820192602092909190829003018186803b15801561170057600080fd5b505afa158015611714573d6000803e3d6000fd5b505050506040513d602081101561172a57600080fd5b505190506001600160a01b037f00000000000000000000000000000000000000000000000000000000000000001663a9059cbb611765611250565b836040518363ffffffff1660e01b815260040180836001600160a01b03166001600160a01b0316815260200182815260200192505050602060405180830381600087803b1580156117b557600080fd5b505af11580156117c9573d6000803e3d6000fd5b505050506040513d60208110156117df57600080fd5b50516110225760405162461bcd60e51b8152600401808060200182810382526029815260200180612b6d6029913960400191505060405180910390fd5b600054600160a81b900460ff1681565b6005602052600090815260409020805460018201546002909201546001600160a01b0382169260ff600160a01b8404811693600160a81b9004169185565b60045460ff1681565b61187b612263565b6001600160a01b031661188c611250565b6001600160a01b0316146118e7576040805162461bcd60e51b815260206004820181905260248201527f4f776e61626c653a2063616c6c6572206973206e6f7420746865206f776e6572604482015290519081900360640190fd5b6001600160a01b03811661192c5760405162461bcd60e51b8152600401808060200182810382526026815260200180612ab76026913960400191505060405180910390fd5b600080546040516001600160a01b03808516939216917f8be0079c531659141344cd1fd0a4f28419497f9722a3daafe3b4186f6b6457e091a36000805473ffffffffffffffffffffffffffffffffffffffff19166001600160a01b0392909216919091179055565b60006119ea7f0000000000000000000000000000000000000000000000000000000000000000610689427f000000000000000000000000000000000000000000000000000000000000000063ffffffff6121ac16565b905090565b6119f7611319565b611a48576040805162461bcd60e51b815260206004820152601560248201527f47616d65206973206e6f7420636f6d706c657465640000000000000000000000604482015290519081900360640190fd5b600054600160a81b900460ff1615611a915760405162461bcd60e51b815260040180806020018281038252602e815260200180612a89602e913960400191505060405180910390fd5b6000805460ff60a81b1916600160a81b178155604080516370a0823160e01b815230600482015290516001600160a01b037f000000000000000000000000000000000000000000000000000000000000000016916370a08231916024808301926020929190829003018186803b158015611b0a57600080fd5b505afa158015611b1e573d6000803e3d6000fd5b505050506040513d6020811015611b3457600080fd5b50511115611e01576004805460408051631a4ca37b60e21b81526001600160a01b037f000000000000000000000000000000000000000000000000000000000000000081169482019490945260001960248201523060448201529051610100909204909216916369328dec91606480830192600092919082900301818387803b158015611bc057600080fd5b505af1158015611bd4573d6000803e3d6000fd5b5050604080516001808252818301909252606093509150602080830190803683370190505090507f000000000000000000000000000000000000000000000000000000000000000081600081518110611c2957fe5b6001600160a01b03928316602091820292909201810191909152600854604080517f8b599f260000000000000000000000000000000000000000000000000000000081523060248201819052600482019283528651604483015286516000969490941694638b599f269488949293839260649091019186820191028083838c5b83811015611cc1578181015183820152602001611ca9565b50505050905001935050505060206040518083038186803b158015611ce557600080fd5b505afa158015611cf9573d6000803e3d6000fd5b505050506040513d6020811015611d0f57600080fd5b505190508015611dfe576008546040517f3111e7b30000000000000000000000000000000000000000000000000000000081526024810183905230604482018190526060600483019081528551606484015285516001600160a01b0390941693633111e7b393879387939092909182916084909101906020808801910280838360005b83811015611daa578181015183820152602001611d92565b50505050905001945050505050602060405180830381600087803b158015611dd157600080fd5b505af1158015611de5573d6000803e3d6000fd5b505050506040513d6020811015611dfb57600080fd5b50505b50505b604080516370a0823160e01b815230600482015290516000916001600160a01b037f000000000000000000000000000000000000000000000000000000000000000016916370a0823191602480820192602092909190829003018186803b158015611e6b57600080fd5b505afa158015611e7f573d6000803e3d6000fd5b505050506040513d6020811015611e9557600080fd5b5051604080516370a0823160e01b815230600482015290519192506000916001600160a01b037f000000000000000000000000000000000000000000000000000000000000000016916370a08231916024808301926020929190829003018186803b158015611f0357600080fd5b505afa158015611f17573d6000803e3d6000fd5b505050506040513d6020811015611f2d57600080fd5b5051600254909150600090831115611f5657600254611f5390849063ffffffff6121ac16565b90505b60007f000000000000000000000000000000000000000000000000000000000000000015611fcd57611fb36064610689847f000000000000000000000000000000000000000000000000000000000000000063ffffffff6120e316565b9050611fc5828263ffffffff6121ac16565b600155611fd6565b50600181905560005b600754611fec5760006009556003829055612009565b60075461200090849063ffffffff61214516565b60095560038190555b6002546001546040805187815260208101939093528281019190915260608201859052517fd8234cc7b00a28dccd130447f7524560caf7a77cbf999dabb6f30f24cb7054869181900360800190a17fdbb9607e18553d40c255226e09883b48f92a108f6f895b0f37db6ae0d7fd56e66007604051808060200182810382528381815481526020019150805480156120c957602002820191906000526020600020905b81546001600160a01b031681526001909101906020018083116120ab575b50509250505060405180910390a150505050565b60065490565b6000826120f25750600061213f565b828202828482816120ff57fe5b041461213c5760405162461bcd60e51b8152600401808060200182810382526021815260200180612b966021913960400191505060405180910390fd5b90505b92915050565b600080821161219b576040805162461bcd60e51b815260206004820152601a60248201527f536166654d6174683a206469766973696f6e206279207a65726f000000000000604482015290519081900360640190fd5b8183816121a457fe5b049392505050565b600082821115612203576040805162461bcd60e51b815260206004820152601e60248201527f536166654d6174683a207375627472616374696f6e206f766572666c6f770000604482015290519081900360640190fd5b50900390565b60008282018381101561213c576040805162461bcd60e51b815260206004820152601b60248201527f536166654d6174683a206164646974696f6e206f766572666c6f770000000000604482015290519081900360640190fd5b3390565b61226f611034565b6122c0576040805162461bcd60e51b815260206004820152601460248201527f5061757361626c653a206e6f7420706175736564000000000000000000000000604482015290519081900360640190fd5b6000805460ff60a01b191690557f5db9ee0a495bf2e6ff9c91a7834c1ba4fdd244a5e8aa4e537bd38aeae4b073aa6122f6612263565b604080516001600160a01b039092168252519081900360200190a1565b604080517fdd62ed3e00000000000000000000000000000000000000000000000000000000815233600482015230602482015290517f0000000000000000000000000000000000000000000000000000000000000000916001600160a01b037f0000000000000000000000000000000000000000000000000000000000000000169163dd62ed3e91604480820192602092909190829003018186803b1580156123bb57600080fd5b505afa1580156123cf573d6000803e3d6000fd5b505050506040513d60208110156123e557600080fd5b505110156124245760405162461bcd60e51b8152600401808060200182810382526043815260200180612be16043913960600191505060405180910390fd5b600061242e611994565b336000908152600560205260409020600181018290556002015490915061247b907f000000000000000000000000000000000000000000000000000000000000000063ffffffff61220916565b336000908152600560205260409020600290810191909155546124c4907f000000000000000000000000000000000000000000000000000000000000000063ffffffff61220916565b600255604080517f23b872dd0000000000000000000000000000000000000000000000000000000081523360048201523060248201527f0000000000000000000000000000000000000000000000000000000000000000604482015290516001600160a01b037f000000000000000000000000000000000000000000000000000000000000000016916323b872dd9160648083019260209291908290030181600087803b15801561257457600080fd5b505af1158015612588573d6000803e3d6000fd5b505050506040513d602081101561259e57600080fd5b50516125f1576040805162461bcd60e51b815260206004820152600f60248201527f5472616e73666572206661696c65640000000000000000000000000000000000604482015290519081900360640190fd5b60048054604080517fe8eda9df0000000000000000000000000000000000000000000000000000000081526001600160a01b037f00000000000000000000000000000000000000000000000000000000000000008116948201949094527f00000000000000000000000000000000000000000000000000000000000000006024820152306044820152609b606482015290516101009092049092169163e8eda9df91608480830192600092919082900301818387803b1580156126b357600080fd5b505af11580156126c7573d6000803e3d6000fd5b5050505050565b6126d6611034565b1561271b576040805162461bcd60e51b815260206004820152601060248201526f14185d5cd8589b194e881c185d5cd95960821b604482015290519081900360640190fd5b6000805460ff60a01b1916600160a01b1790557f62e78cea01bee320cd4e420270b5ea74000d11b0c9f74754ebdbfc544b05a2586122f6612263565b61275f611994565b156127b1576040805162461bcd60e51b815260206004820152601860248201527f47616d652068617320616c726561647920737461727465640000000000000000604482015290519081900360640190fd5b336000818152600560205260409020546001600160a01b03161415806127ed575033600090815260056020526040902054600160a81b900460ff165b6128285760405162461bcd60e51b8152600401808060200182810382526023815260200180612c456023913960400191505060405180910390fd5b33600090815260056020526040902054600160a81b900460ff1661284a612a04565b506040805160a08101825233808252600060208084018281528486018381526060860184815260808701858152958552600590935295909220845181549351965173ffffffffffffffffffffffffffffffffffffffff199094166001600160a01b039091161760ff60a01b1916600160a01b961515969096029590951760ff60a81b1916600160a81b9215159290920291909117845551600184015551600290920191909155816129a2576006805460018101825560008290527ff652222313e28459528d920b65115c16c04f3efc82aaedc97be59f3f377c0d3f01805473ffffffffffffffffffffffffffffffffffffffff191633179055547f000000000000000000000000000000000000000000000000000000000000000010156129a25760405162461bcd60e51b8152600401808060200182810382526027815260200180612a336027913960400191505060405180910390fd5b604080517f00000000000000000000000000000000000000000000000000000000000000008152905133917f485fd86c2a7d2d9ca3bf02e2ba776ea24271bc62274265b0bd5f478b3b7a1ca4919081900360200190a2612a00612313565b5050565b6040805160a0810182526000808252602082018190529181018290526060810182905260808101919091529056fe52656163686564206d6178207175616e74697479206f6620706c617965727320616c6c6f7765644661696c20746f207472616e7366657220455243323020746f6b656e73206f6e206561726c7920776974686472617752656465656d206f7065726174696f6e20616c72656164792068617070656e656420666f72207468652067616d654f776e61626c653a206e6577206f776e657220697320746865207a65726f20616464726573734661696c20746f207472616e73666572204552323020746f6b656e7320746f2061646d696e4465706f73697420617661696c61626c65206f6e6c79206265747765656e207365676d656e74203120616e64207365676d656e74206e2d31202870656e756c74696d6174652946756e6473206e6f742072656465656d65642066726f6d2065787465726e616c20706f6f6c4661696c20746f207472616e7366657220455243323020746f6b656e73206f6e207769746864726177536166654d6174683a206d756c7469706c69636174696f6e206f766572666c6f774661696c20746f207472616e736665722045524332302072657761726473206f6e207769746864726177596f75206e65656420746f206861766520616c6c6f77616e636520746f20646f207472616e7366657220444149206f6e2074686520736d61727420636f6e7472616374506c6179657220616c72656164792077697468647261772066726f6d2067616d6543616e6e6f74206a6f696e207468652067616d65206d6f7265207468616e206f6e6365506c6179657220616c726561647920706169642063757272656e74207365676d656e74506c61796572206469646e277420706179207468652070726576696f7573207365676d656e74202d2067616d65206f76657221a2646970667358221220e8c478cdc43406215b9e5d8f2b78b3c5f942400935b5089b8b9603572c862fa664736f6c634300060b00335f6d6178506c6179657273436f756e74206d7573742062652067726561746572207468616e207a65726f4661696c20746f20617070726f766520616c6c6f77616e636520746f206c656e64696e6720706f6f6c",
    "immutableReferences": {
        "34": [
            {
                "length": 32,
                "start": 1858
            },
            {
                "length": 32,
                "start": 2022
            },
            {
                "length": 32,
                "start": 2688
            },
            {
                "length": 32,
                "start": 4855
            },
            {
                "length": 32,
                "start": 5537
            },
            {
                "length": 32,
                "start": 7000
            },
            {
                "length": 32,
                "start": 7716
            },
            {
                "length": 32,
                "start": 9076
            },
            {
                "length": 32,
                "start": 9516
            },
            {
                "length": 32,
                "start": 9766
            }
        ],
        "37": [
            {
                "length": 32,
                "start": 4770
            },
            {
                "length": 32,
                "start": 6852
            },
            {
                "length": 32,
                "start": 7165
            }
        ],
        "40": [
            {
                "length": 32,
                "start": 4208
            }
        ],
        "46": [
            {
                "length": 32,
                "start": 1157
            },
            {
                "length": 32,
                "start": 4041
            },
            {
                "length": 32,
                "start": 9034
            },
            {
                "length": 32,
                "start": 9297
            },
            {
                "length": 32,
                "start": 9370
            },
            {
                "length": 32,
                "start": 9468
            },
            {
                "length": 32,
                "start": 9808
            },
            {
                "length": 32,
                "start": 10664
            }
        ],
        "49": [
            {
                "length": 32,
                "start": 1193
            },
            {
                "length": 32,
                "start": 2489
            },
            {
                "length": 32,
                "start": 3629
            },
            {
                "length": 32,
                "start": 3904
            },
            {
                "length": 32,
                "start": 4893
            }
        ],
        "52": [
            {
                "length": 32,
                "start": 3085
            },
            {
                "length": 32,
                "start": 6592
            }
        ],
        "55": [
            {
                "length": 32,
                "start": 4940
            },
            {
                "length": 32,
                "start": 6555
            }
        ],
        "58": [
            {
                "length": 32,
                "start": 1631
            },
            {
                "length": 32,
                "start": 2206
            }
        ],
        "61": [
            {
                "length": 32,
                "start": 4166
            },
            {
                "length": 32,
                "start": 8026
            },
            {
                "length": 32,
                "start": 8073
            }
        ],
        "64": [
            {
                "length": 32,
                "start": 4453
            },
            {
                "length": 32,
                "start": 10566
            }
        ],
        "2109": [
            {
                "length": 32,
                "start": 2908
            },
            {
                "length": 32,
                "start": 4819
            },
            {
                "length": 32,
                "start": 5817
            },
            {
                "length": 32,
                "start": 5944
            },
            {
                "length": 32,
                "start": 7869
            }
        ]
    },
    "source": "// SPDX-License-Identifier: UNLICENSED\n\npragma solidity 0.6.11;\n\nimport \"@openzeppelin/contracts/math/SafeMath.sol\";\nimport \"@openzeppelin/contracts/token/ERC20/IERC20.sol\";\nimport \"./aave/ILendingPoolAddressesProvider.sol\";\nimport \"./aave/ILendingPool.sol\";\nimport \"./aave/AToken.sol\";\nimport \"./aave/IncentiveController.sol\";\nimport \"./GoodGhosting.sol\";\n\n/// @title GoodGhosting Game Contract\n/// @author Francis Odisi & Viraz Malhotra\n/// @notice Used for the games deployed on Polygon using Aave as the underlying external pool.\ncontract GoodGhostingPolygon is GoodGhosting {\n    IncentiveController public incentiveController;\n    IERC20 public immutable matic;\n    uint256 public rewardsPerPlayer;\n\n    /**\n        Creates a new instance of GoodGhosting game\n        @param _inboundCurrency Smart contract address of inbound currency used for the game.\n        @param _lendingPoolAddressProvider Smart contract address of the lending pool adddress provider.\n        @param _segmentCount Number of segments in the game.\n        @param _segmentLength Lenght of each segment, in seconds (i.e., 180 (sec) => 3 minutes).\n        @param _segmentPayment Amount of tokens each player needs to contribute per segment (i.e. 10*10**18 equals to 10 DAI - note that DAI uses 18 decimal places).\n        @param _earlyWithdrawalFee Fee paid by users on early withdrawals (before the game completes). Used as an integer percentage (i.e., 10 represents 10%). Does not accept \"decimal\" fees like \"0.5\".\n        @param _customFee performance fee charged by admin. Used as an integer percentage (i.e., 10 represents 10%). Does not accept \"decimal\" fees like \"0.5\".\n        @param _dataProvider id for getting the data provider contract address 0x1 to be passed.\n        @param _maxPlayersCount max quantity of players allowed to join the game\n        @param _incentiveController matic reward claim contract.\n        @param _matic matic token address.\n     */\n    constructor(\n        IERC20 _inboundCurrency,\n        ILendingPoolAddressesProvider _lendingPoolAddressProvider,\n        uint256 _segmentCount,\n        uint256 _segmentLength,\n        uint256 _segmentPayment,\n        uint256 _earlyWithdrawalFee,\n        uint256 _customFee,\n        address _dataProvider,\n        uint256 _maxPlayersCount,\n        address _incentiveController,\n        IERC20 _matic\n    )\n        public\n        GoodGhosting(\n            _inboundCurrency,\n            _lendingPoolAddressProvider,\n            _segmentCount,\n            _segmentLength,\n            _segmentPayment,\n            _earlyWithdrawalFee,\n            _customFee,\n            _dataProvider,\n            _maxPlayersCount\n        )\n    {\n        // initializing incentiveController contract\n        incentiveController = IncentiveController(_incentiveController);\n        matic = _matic;\n    }\n\n    /// @notice Allows the admin to withdraw the performance fee, if applicable. This function can be called only by the contract's admin.\n    /// @dev Cannot be called before the game ends.\n    function adminFeeWithdraw()\n        external\n        override\n        onlyOwner\n        whenGameIsCompleted\n    {\n        require(redeemed, \"Funds not redeemed from external pool\");\n        require(!adminWithdraw, \"Admin has already withdrawn\");\n        adminWithdraw = true;\n        emit AdminWithdrawal(owner(), totalGameInterest, adminFeeAmount);\n\n        if (adminFeeAmount > 0) {\n            require(\n                IERC20(daiToken).transfer(owner(), adminFeeAmount),\n                \"Fail to transfer ER20 tokens to admin\"\n            );\n        }\n\n        if (rewardsPerPlayer == 0) {\n            uint256 balance = IERC20(matic).balanceOf(address(this));\n            require(\n                IERC20(matic).transfer(owner(), balance),\n                \"Fail to transfer ERC20 tokens on withdraw\"\n            );\n        }\n    }\n\n    /// @notice Allows player to withdraw their funds after the game ends with no loss (fee). Winners get a share of the interest earned.\n    function withdraw() external override {\n        Player storage player = players[msg.sender];\n        require(player.amountPaid > 0, \"Player does not exist\");\n        require(!player.withdrawn, \"Player has already withdrawn\");\n        player.withdrawn = true;\n\n        // First player to withdraw redeems everyone's funds\n        if (!redeemed) {\n            redeemFromExternalPool();\n        }\n\n        uint256 payout = player.amountPaid;\n        uint256 playerReward = 0;\n        if (player.mostRecentSegmentPaid == lastSegment.sub(1)) {\n            // Player is a winner and gets a bonus!\n            payout = payout.add(totalGameInterest.div(winners.length));\n            playerReward = rewardsPerPlayer;\n        }\n        emit Withdrawal(msg.sender, payout, playerReward);\n\n        require(\n            IERC20(daiToken).transfer(msg.sender, payout),\n            \"Fail to transfer ERC20 tokens on withdraw\"\n        );\n\n        if (playerReward > 0) {\n            require(\n                IERC20(matic).transfer(msg.sender, playerReward),\n                \"Fail to transfer ERC20 rewards on withdraw\"\n            );\n        }\n    }\n\n    /// @notice Redeems funds from the external pool and updates the internal accounting controls related to the game stats.\n    /// @dev Can only be called after the game is completed.\n    function redeemFromExternalPool() public override whenGameIsCompleted {\n        require(!redeemed, \"Redeem operation already happened for the game\");\n        redeemed = true;\n        // Withdraws funds (principal + interest + rewards) from external pool\n        if (adaiToken.balanceOf(address(this)) > 0) {\n            lendingPool.withdraw(\n                address(daiToken),\n                type(uint256).max,\n                address(this)\n            );\n            // Claims the rewards from the external pool\n            address[] memory assets = new address[](1);\n            assets[0] = address(adaiToken);\n            uint256 claimableRewards = incentiveController.getRewardsBalance(\n                assets,\n                address(this)\n            );\n            if (claimableRewards > 0) {\n                incentiveController.claimRewards(\n                    assets,\n                    claimableRewards,\n                    address(this)\n                );\n            }\n        }\n\n        uint256 totalBalance = IERC20(daiToken).balanceOf(address(this));\n        uint256 rewardsAmount = IERC20(matic).balanceOf(address(this));\n        // calculates gross interest\n        uint256 grossInterest = 0;\n        // Sanity check to avoid reverting due to overflow in the \"subtraction\" below.\n        // This could only happen in case Aave changes the 1:1 ratio between\n        // aToken vs. Token in the future (i.e., 1 aDAI is worth less than 1 DAI)\n        if (totalBalance > totalGamePrincipal) {\n            grossInterest = totalBalance.sub(totalGamePrincipal);\n        }\n        // calculates the performance/admin fee (takes a cut - the admin percentage fee - from the pool's interest).\n        // calculates the \"gameInterest\" (net interest) that will be split among winners in the game\n        uint256 _adminFeeAmount;\n        if (customFee > 0) {\n            _adminFeeAmount = (grossInterest.mul(customFee)).div(100);\n            totalGameInterest = grossInterest.sub(_adminFeeAmount);\n        } else {\n            _adminFeeAmount = 0;\n            totalGameInterest = grossInterest;\n        }\n\n        // when there's no winners, admin takes all the interest + rewards\n        if (winners.length == 0) {\n            rewardsPerPlayer = 0;\n            adminFeeAmount = grossInterest;\n        } else {\n            rewardsPerPlayer = rewardsAmount.div(winners.length);\n            adminFeeAmount = _adminFeeAmount;\n        }\n\n        emit FundsRedeemedFromExternalPool(\n            totalBalance,\n            totalGamePrincipal,\n            totalGameInterest,\n            rewardsAmount\n        );\n        emit WinnersAnnouncement(winners);\n    }\n}\n",
    "sourcePath": "/media/fodisi/56401C55401C3DE5/dev/Projects/goodghosting-smart-contracts/contracts/GoodGhostingPolygon.sol",
    "compiler": {
        "name": "solc",
        "version": "0.6.11+commit.5ef660b1.Emscripten.clang"
    },
    "schemaVersion": "3.4.1",
    "updatedAt": "2021-07-21T13:02:38.645Z",
    "networkType": "ethereum",
    "devdoc": {
        "author": "Francis Odisi & Viraz Malhotra",
        "kind": "dev",
        "methods": {
            "adminFeeWithdraw()": {
                "details": "Cannot be called before the game ends."
            },
            "constructor": {
                "params": {
                    "_customFee": "performance fee charged by admin. Used as an integer percentage (i.e., 10 represents 10%). Does not accept \"decimal\" fees like \"0.5\".",
                    "_dataProvider": "id for getting the data provider contract address 0x1 to be passed.",
                    "_earlyWithdrawalFee": "Fee paid by users on early withdrawals (before the game completes). Used as an integer percentage (i.e., 10 represents 10%). Does not accept \"decimal\" fees like \"0.5\".",
                    "_inboundCurrency": "Smart contract address of inbound currency used for the game.",
                    "_incentiveController": "matic reward claim contract.",
                    "_lendingPoolAddressProvider": "Smart contract address of the lending pool adddress provider.",
                    "_matic": "matic token address.",
                    "_maxPlayersCount": "max quantity of players allowed to join the game",
                    "_segmentCount": "Number of segments in the game.",
                    "_segmentLength": "Lenght of each segment, in seconds (i.e., 180 (sec) => 3 minutes).",
                    "_segmentPayment": "Amount of tokens each player needs to contribute per segment (i.e. 10*10**18 equals to 10 DAI - note that DAI uses 18 decimal places)."
                }
            },
            "earlyWithdraw()": {
                "details": "Cannot be called after the game is completed."
            },
            "getCurrentSegment()": {
                "returns": {
                    "_0": "current game segment"
                }
            },
            "getNumberOfPlayers()": {
                "returns": {
                    "_0": "number of players"
                }
            },
            "isGameCompleted()": {
                "returns": {
                    "_0": "\"true\" if completeted; otherwise, \"false\"."
                }
            },
            "owner()": {
                "details": "Returns the address of the current owner."
            },
            "paused()": {
                "details": "Returns true if the contract is paused, and false otherwise."
            },
            "redeemFromExternalPool()": {
                "details": "Can only be called after the game is completed."
            },
            "renounceOwnership()": {
                "details": "Leaves the contract without owner. It will not be possible to call `onlyOwner` functions anymore. Can only be called by the current owner. NOTE: Renouncing ownership will leave the contract without an owner, thereby removing any functionality that is only available to the owner."
            },
            "transferOwnership(address)": {
                "details": "Transfers ownership of the contract to a new account (`newOwner`). Can only be called by the current owner."
            }
        },
        "title": "GoodGhosting Game Contract",
        "version": 1
    },
    "userdoc": {
        "kind": "user",
        "methods": {
            "adaiToken()": {
                "notice": "Address of the interest bearing token received when funds are transferred to the external pool"
            },
            "adminFeeAmount()": {
                "notice": "performance fee amount allocated to the admin"
            },
            "adminFeeWithdraw()": {
                "notice": "Allows the admin to withdraw the performance fee, if applicable. This function can be called only by the contract's admin."
            },
            "adminWithdraw()": {
                "notice": "controls if admin withdrew or not the performance fee."
            },
            "constructor": "Creates a new instance of GoodGhosting game",
            "customFee()": {
                "notice": "The performance admin fee (percentage)"
            },
            "daiToken()": {
                "notice": "Address of the token used for depositing into the game by players (DAI)"
            },
            "earlyWithdraw()": {
                "notice": "Allows a player to withdraws funds before the game ends. An early withdrawl fee is charged."
            },
            "earlyWithdrawalFee()": {
                "notice": "The early withdrawal fee (percentage)"
            },
            "firstSegmentStart()": {
                "notice": "When the game started (deployed timestamp)"
            },
            "getCurrentSegment()": {
                "notice": "Calculates the current segment of the game."
            },
            "getNumberOfPlayers()": {
                "notice": "gets the number of players in the game"
            },
            "isGameCompleted()": {
                "notice": "Checks if the game is completed or not."
            },
            "iterablePlayers(uint256)": {
                "notice": "controls the amount deposited in each segment that was not yet transferred to the external underlying poollist of players"
            },
            "joinGame()": {
                "notice": "Allows a player to join the game"
            },
            "lastSegment()": {
                "notice": "The number of segments in the game (segment count)"
            },
            "lendingPool()": {
                "notice": "Lending pool address"
            },
            "lendingPoolAddressProvider()": {
                "notice": "Which Aave instance we use to swap DAI to interest bearing aDAI"
            },
            "makeDeposit()": {
                "notice": "Allows players to make deposits for the game segments, after joining the game."
            },
            "maxPlayersCount()": {
                "notice": "Defines the max quantity of players allowed in the game"
            },
            "pause()": {
                "notice": "pauses the game. This function can be called only by the contract's admin."
            },
            "players(address)": {
                "notice": "Stores info about the players in the game"
            },
            "redeemFromExternalPool()": {
                "notice": "Redeems funds from the external pool and updates the internal accounting controls related to the game stats."
            },
            "redeemed()": {
                "notice": "Controls if tokens were redeemed or not from the pool"
            },
            "segmentLength()": {
                "notice": "The time duration (in seconds) of each segment"
            },
            "segmentPayment()": {
                "notice": "The amount to be paid on each segment"
            },
            "totalGameInterest()": {
                "notice": "Stores the total amount of net interest received in the game."
            },
            "totalGamePrincipal()": {
                "notice": "total principal amount"
            },
            "unpause()": {
                "notice": "unpauses the game. This function can be called only by the contract's admin."
            },
            "winners(uint256)": {
                "notice": "list of winners"
            },
            "withdraw()": {
                "notice": "Allows player to withdraw their funds after the game ends with no loss (fee). Winners get a share of the interest earned."
            }
        },
        "notice": "Used for the games deployed on Polygon using Aave as the underlying external pool.",
        "version": 1
    }
}