{
    "_format": "hh-sol-artifact-1",
    "contractName": "LosslessV2Pool",
    "sourceName": "contracts/core/LosslessV2Pool.sol",
    "abi": [
        {
            "inputs": [
                {
                    "internalType": "address",
                    "name": "_bidToken",
                    "type": "address"
                },
                {
                    "internalType": "address",
                    "name": "_principalToken",
                    "type": "address"
                },
                {
                    "internalType": "address",
                    "name": "_addressProvider",
                    "type": "address"
                },
                {
                    "internalType": "address",
                    "name": "_aggregator",
                    "type": "address"
                },
                {
                    "internalType": "uint256",
                    "name": "_biddingDuration",
                    "type": "uint256"
                },
                {
                    "internalType": "uint256",
                    "name": "_gamingDuration",
                    "type": "uint256"
                }
            ],
            "stateMutability": "nonpayable",
            "type": "constructor"
        },
        {
            "anonymous": false,
            "inputs": [
                {
                    "indexed": false,
                    "internalType": "bool",
                    "name": "isShortLastRoundWinner",
                    "type": "bool"
                },
                {
                    "indexed": false,
                    "internalType": "int256",
                    "name": "initialPrice",
                    "type": "int256"
                },
                {
                    "indexed": false,
                    "internalType": "int256",
                    "name": "endPrice",
                    "type": "int256"
                }
            ],
            "name": "AnnounceWinner",
            "type": "event"
        },
        {
            "anonymous": false,
            "inputs": [
                {
                    "indexed": false,
                    "internalType": "uint256",
                    "name": "shortPrincipalAmount",
                    "type": "uint256"
                },
                {
                    "indexed": false,
                    "internalType": "uint256",
                    "name": "longPrincipalAmount",
                    "type": "uint256"
                }
            ],
            "name": "Deposit",
            "type": "event"
        },
        {
            "anonymous": false,
            "inputs": [
                {
                    "indexed": false,
                    "internalType": "uint256",
                    "name": "principalAmount",
                    "type": "uint256"
                }
            ],
            "name": "SponsorDeposit",
            "type": "event"
        },
        {
            "anonymous": false,
            "inputs": [
                {
                    "indexed": false,
                    "internalType": "uint256",
                    "name": "sponsorTokenAmount",
                    "type": "uint256"
                }
            ],
            "name": "SponsorWithdraw",
            "type": "event"
        },
        {
            "anonymous": false,
            "inputs": [
                {
                    "indexed": false,
                    "internalType": "uint256",
                    "name": "valuePerShortToken",
                    "type": "uint256"
                },
                {
                    "indexed": false,
                    "internalType": "uint256",
                    "name": "valuePerLongToken",
                    "type": "uint256"
                }
            ],
            "name": "UpdateTokenValue",
            "type": "event"
        },
        {
            "anonymous": false,
            "inputs": [
                {
                    "indexed": false,
                    "internalType": "bool",
                    "name": "isAToken",
                    "type": "bool"
                },
                {
                    "indexed": false,
                    "internalType": "uint256",
                    "name": "shortTokenAmount",
                    "type": "uint256"
                },
                {
                    "indexed": false,
                    "internalType": "uint256",
                    "name": "longTokenAmount",
                    "type": "uint256"
                }
            ],
            "name": "Withdraw",
            "type": "event"
        },
        {
            "inputs": [],
            "name": "PRECISION",
            "outputs": [
                {
                    "internalType": "uint256",
                    "name": "",
                    "type": "uint256"
                }
            ],
            "stateMutability": "view",
            "type": "function"
        },
        {
            "inputs": [],
            "name": "aToken",
            "outputs": [
                {
                    "internalType": "address",
                    "name": "",
                    "type": "address"
                }
            ],
            "stateMutability": "view",
            "type": "function"
        },
        {
            "inputs": [],
            "name": "addressProvider",
            "outputs": [
                {
                    "internalType": "address",
                    "name": "",
                    "type": "address"
                }
            ],
            "stateMutability": "view",
            "type": "function"
        },
        {
            "inputs": [],
            "name": "bidToken",
            "outputs": [
                {
                    "internalType": "address",
                    "name": "",
                    "type": "address"
                }
            ],
            "stateMutability": "view",
            "type": "function"
        },
        {
            "inputs": [
                {
                    "internalType": "bytes",
                    "name": "checkData",
                    "type": "bytes"
                }
            ],
            "name": "checkUpkeep",
            "outputs": [
                {
                    "internalType": "bool",
                    "name": "upkeepNeeded",
                    "type": "bool"
                },
                {
                    "internalType": "bytes",
                    "name": "performData",
                    "type": "bytes"
                }
            ],
            "stateMutability": "nonpayable",
            "type": "function"
        },
        {
            "inputs": [
                {
                    "internalType": "uint256",
                    "name": "shortPrincipalAmount",
                    "type": "uint256"
                },
                {
                    "internalType": "uint256",
                    "name": "longPrincipalAmount",
                    "type": "uint256"
                }
            ],
            "name": "deposit",
            "outputs": [],
            "stateMutability": "nonpayable",
            "type": "function"
        },
        {
            "inputs": [],
            "name": "endGame",
            "outputs": [],
            "stateMutability": "nonpayable",
            "type": "function"
        },
        {
            "inputs": [],
            "name": "factory",
            "outputs": [
                {
                    "internalType": "address",
                    "name": "",
                    "type": "address"
                }
            ],
            "stateMutability": "view",
            "type": "function"
        },
        {
            "inputs": [
                {
                    "internalType": "address",
                    "name": "",
                    "type": "address"
                }
            ],
            "name": "inPoolTimestamp",
            "outputs": [
                {
                    "internalType": "uint256",
                    "name": "",
                    "type": "uint256"
                }
            ],
            "stateMutability": "view",
            "type": "function"
        },
        {
            "inputs": [
                {
                    "internalType": "address",
                    "name": "shortToken_",
                    "type": "address"
                },
                {
                    "internalType": "address",
                    "name": "longToken_",
                    "type": "address"
                },
                {
                    "internalType": "address",
                    "name": "sponsorToken_",
                    "type": "address"
                }
            ],
            "name": "initialize",
            "outputs": [],
            "stateMutability": "nonpayable",
            "type": "function"
        },
        {
            "inputs": [
                {
                    "internalType": "bytes",
                    "name": "performData",
                    "type": "bytes"
                }
            ],
            "name": "performUpkeep",
            "outputs": [],
            "stateMutability": "nonpayable",
            "type": "function"
        },
        {
            "inputs": [],
            "name": "poolTermination",
            "outputs": [],
            "stateMutability": "nonpayable",
            "type": "function"
        },
        {
            "inputs": [],
            "name": "poolTokensInfo",
            "outputs": [
                {
                    "internalType": "address",
                    "name": "longToken",
                    "type": "address"
                },
                {
                    "internalType": "address",
                    "name": "shortToken",
                    "type": "address"
                },
                {
                    "internalType": "address",
                    "name": "sponsorToken",
                    "type": "address"
                }
            ],
            "stateMutability": "view",
            "type": "function"
        },
        {
            "inputs": [],
            "name": "principalToken",
            "outputs": [
                {
                    "internalType": "address",
                    "name": "",
                    "type": "address"
                }
            ],
            "stateMutability": "view",
            "type": "function"
        },
        {
            "inputs": [
                {
                    "internalType": "uint256",
                    "name": "principalAmount",
                    "type": "uint256"
                }
            ],
            "name": "sponsorDeposit",
            "outputs": [],
            "stateMutability": "nonpayable",
            "type": "function"
        },
        {
            "inputs": [
                {
                    "internalType": "uint256",
                    "name": "sponsorTokenAmount",
                    "type": "uint256"
                }
            ],
            "name": "sponsorWithdraw",
            "outputs": [],
            "stateMutability": "nonpayable",
            "type": "function"
        },
        {
            "inputs": [],
            "name": "startFirstRound",
            "outputs": [],
            "stateMutability": "nonpayable",
            "type": "function"
        },
        {
            "inputs": [],
            "name": "startGame",
            "outputs": [],
            "stateMutability": "nonpayable",
            "type": "function"
        },
        {
            "inputs": [],
            "name": "status",
            "outputs": [
                {
                    "internalType": "bool",
                    "name": "isShortLastRoundWinner",
                    "type": "bool"
                },
                {
                    "internalType": "bool",
                    "name": "isFirstUser",
                    "type": "bool"
                },
                {
                    "internalType": "bool",
                    "name": "isFirstRound",
                    "type": "bool"
                },
                {
                    "internalType": "uint256",
                    "name": "gameRound",
                    "type": "uint256"
                },
                {
                    "internalType": "uint256",
                    "name": "durationOfGame",
                    "type": "uint256"
                },
                {
                    "internalType": "uint256",
                    "name": "durationOfBidding",
                    "type": "uint256"
                },
                {
                    "internalType": "uint256",
                    "name": "lastUpdateTimestamp",
                    "type": "uint256"
                },
                {
                    "internalType": "int256",
                    "name": "initialPrice",
                    "type": "int256"
                },
                {
                    "internalType": "int256",
                    "name": "endPrice",
                    "type": "int256"
                },
                {
                    "internalType": "enum ILosslessV2Pool.PoolStatus",
                    "name": "currState",
                    "type": "uint8"
                }
            ],
            "stateMutability": "view",
            "type": "function"
        },
        {
            "inputs": [
                {
                    "internalType": "bool",
                    "name": "fromLongToShort",
                    "type": "bool"
                },
                {
                    "internalType": "uint256",
                    "name": "swapTokenAmount",
                    "type": "uint256"
                }
            ],
            "name": "swap",
            "outputs": [],
            "stateMutability": "nonpayable",
            "type": "function"
        },
        {
            "inputs": [
                {
                    "internalType": "address",
                    "name": "userAddress",
                    "type": "address"
                }
            ],
            "name": "userLongPrincipalBalance",
            "outputs": [
                {
                    "internalType": "uint256",
                    "name": "userLongAmount",
                    "type": "uint256"
                }
            ],
            "stateMutability": "view",
            "type": "function"
        },
        {
            "inputs": [
                {
                    "internalType": "address",
                    "name": "userAddress",
                    "type": "address"
                }
            ],
            "name": "userShortPrincipalBalance",
            "outputs": [
                {
                    "internalType": "uint256",
                    "name": "userShortAmount",
                    "type": "uint256"
                }
            ],
            "stateMutability": "view",
            "type": "function"
        },
        {
            "inputs": [],
            "name": "valuePerLongToken",
            "outputs": [
                {
                    "internalType": "uint256",
                    "name": "",
                    "type": "uint256"
                }
            ],
            "stateMutability": "view",
            "type": "function"
        },
        {
            "inputs": [],
            "name": "valuePerShortToken",
            "outputs": [
                {
                    "internalType": "uint256",
                    "name": "",
                    "type": "uint256"
                }
            ],
            "stateMutability": "view",
            "type": "function"
        },
        {
            "inputs": [],
            "name": "valuePerSponsorToken",
            "outputs": [
                {
                    "internalType": "uint256",
                    "name": "",
                    "type": "uint256"
                }
            ],
            "stateMutability": "view",
            "type": "function"
        },
        {
            "inputs": [
                {
                    "internalType": "bool",
                    "name": "isAToken",
                    "type": "bool"
                },
                {
                    "internalType": "uint256",
                    "name": "shortTokenAmount",
                    "type": "uint256"
                },
                {
                    "internalType": "uint256",
                    "name": "longTokenAmount",
                    "type": "uint256"
                }
            ],
            "name": "withdraw",
            "outputs": [],
            "stateMutability": "nonpayable",
            "type": "function"
        }
    ],
    "bytecode": "0x608060405261271060068190556007556017805460ff60a01b1916600160a01b1790553480156200002f57600080fd5b50604051620032d2380380620032d2833981810160405260c08110156200005557600080fd5b508051602082015160408301516060840151608085015160a09095015160008054336001600160a01b0319918216179091556001805482166001600160a01b0380891691909117909155600280548316828816179081905560048054909316828716179092559596949593949293620000cf91166200013d565b600380546001600160a01b039283166001600160a01b03199182161790915560058054959092169416939093179092556001600a55600c55600b55505042600d55506009805461ff001962ff0000199091166201000017166101001790556010805460ff191690556200024f565b60048054604080516321f8a72160e01b8152600160f81b9381018490529051600093600193909285926001600160a01b03909216916321f8a72191602480820192602092909190829003018186803b1580156200019957600080fd5b505afa158015620001ae573d6000803e3d6000fd5b505050506040513d6020811015620001c557600080fd5b5051604080516334924edb60e21b81526001600160a01b038881166004830152915192935083929183169163d2493b6c91602480820192606092909190829003018186803b1580156200021757600080fd5b505afa1580156200022c573d6000803e3d6000fd5b505050506040513d60608110156200024357600080fd5b50519695505050505050565b613073806200025f6000396000f3fe608060405234801561001057600080fd5b506004361061018e5760003560e01c8063a0c1f15e116100de578063c45a015511610097578063dfafd4fd11610071578063dfafd4fd146104f8578063e2bbb15814610500578063fb5dfe7814610523578063fdd89a34146105495761018e565b8063c45a0155146104e0578063d65ab5f2146104e8578063dbc162de146104f05761018e565b8063a0c1f15e1461046b578063aa18ca9214610473578063aaf5eb681461047b578063bb6e17961461047b578063c037646a14610483578063c0c53b8b146104a85761018e565b80634585e33b1161014b5780636cbc2ded116101255780636cbc2ded146103445780636e04ff0d1461034c578063889c0bbd1461043d5780638fe68855146104635761018e565b80634585e33b146102915780634d5bb1bb146103015780635785c18c146103275761018e565b8063200d2ed21461019357806324294b1f146102015780632954018c1461020b578063344846dd1461022f57806334e08db51461024c5780633b3bbc9c14610277575b600080fd5b61019b61057c565b604051808b151581526020018a1515815260200189151581526020018881526020018781526020018681526020018581526020018481526020018381526020018260038111156101e757fe5b81526020019a505050505050505050505060405180910390f35b6102096105bc565b005b610213610698565b604080516001600160a01b039092168252519081900360200190f35b6102096004803603602081101561024557600080fd5b50356106a7565b6102096004803603606081101561026257600080fd5b50803515159060208101359060400135610855565b61027f610bb7565b60408051918252519081900360200190f35b610209600480360360208110156102a757600080fd5b8101906020810181356401000000008111156102c257600080fd5b8201836020820111156102d457600080fd5b803590602001918460018302840111640100000000831117156102f657600080fd5b509092509050610bbd565b61027f6004803603602081101561031757600080fd5b50356001600160a01b0316610c37565b6102096004803603602081101561033d57600080fd5b5035610c49565b610209610f13565b6103bc6004803603602081101561036257600080fd5b81019060208101813564010000000081111561037d57600080fd5b82018360208201111561038f57600080fd5b803590602001918460018302840111640100000000831117156103b157600080fd5b509092509050611373565b60405180831515815260200180602001828103825283818151815260200191508051906020019080838360005b838110156104015781810151838201526020016103e9565b50505050905090810190601f16801561042e5780820380516001836020036101000a031916815260200191505b50935050505060405180910390f35b61027f6004803603602081101561045357600080fd5b50356001600160a01b0316611439565b61020961149e565b610213611564565b61027f611573565b61027f611579565b6102096004803603604081101561049957600080fd5b5080351515906020013561157f565b610209600480360360608110156104be57600080fd5b506001600160a01b038135811691602081013582169160409091013516611818565b6102136118d8565b6102096118e7565b610213611c0a565b610213611c19565b6102096004803603604081101561051657600080fd5b5080359060200135611c28565b61027f6004803603602081101561053957600080fd5b50356001600160a01b0316611ee4565b610551611f43565b604080516001600160a01b039485168152928416602084015292168183015290519081900360600190f35b600954600a54600b54600c54600d54600e54600f5460105460ff80891698610100810482169862010000909104821697909690959094909390929091168a565b60095462010000900460ff16151560011461061e576040805162461bcd60e51b815260206004820181905260248201527f4c6f73736c6573735632506f6f6c3a204e4f5420464952535420524f554e4421604482015290519081900360640190fd5b600060105460ff16600381111561063157fe5b14610671576040805162461bcd60e51b815260206004820152601c6024820152600080516020612fc4833981519152604482015290519081900360640190fd5b42600d556009805462ff000019169055601080546002919060ff19166001835b0217905550565b6004546001600160a01b031681565b601754600160a01b900460ff1615156001146106f8576040805162461bcd60e51b81526020600482015260166024820152600080516020612fa4833981519152604482015290519081900360640190fd5b6017805460ff60a01b1916905580610745576040805162461bcd60e51b815260206004820152601e6024820152600080516020612f5a833981519152604482015290519081900360640190fd5b60175460408051632770a7eb60e21b81523360048201526024810184905290516001600160a01b0390921691639dc29fac916044808201926020929091908290030181600087803b15801561079957600080fd5b505af11580156107ad573d6000803e3d6000fd5b505050506040513d60208110156107c357600080fd5b506001905060105460ff1660038111156107d957fe5b14156107f5576002546107f5906001600160a01b031682611f60565b60025461080c906001600160a01b0316338361210a565b6040805182815290517f53f39bc00c1c01fadfe8bb9bd4d3398572c1cd9b0061bebcdd8c1abd4e4e21d19181900360200190a1506017805460ff60a01b1916600160a01b179055565b601754600160a01b900460ff1615156001146108a6576040805162461bcd60e51b81526020600482015260166024820152600080516020612fa4833981519152604482015290519081900360640190fd5b6017805460ff60a01b19169055811515806108c15750600081115b610900576040805162461bcd60e51b815260206004820152601e6024820152600080516020612f5a833981519152604482015290519081900360640190fd5b601554604080516370a0823160e01b815233600482015290516000926001600160a01b0316916370a08231916024808301926020929190829003018186803b15801561094b57600080fd5b505afa15801561095f573d6000803e3d6000fd5b505050506040513d602081101561097557600080fd5b5051601654604080516370a0823160e01b815233600482015290519293506000926001600160a01b03909216916370a0823191602480820192602092909190829003018186803b1580156109c857600080fd5b505afa1580156109dc573d6000803e3d6000fd5b505050506040513d60208110156109f257600080fd5b50519050838210801590610a065750828110155b610a415760405162461bcd60e51b815260040180806020018281038252602481526020018061301a6024913960400191505060405180910390fd5b6000610a64612710610a5e6006548861216190919063ffffffff16565b906121c1565b90506000610a83612710610a5e6007548861216190919063ffffffff16565b336000818152601460205260408120429055919250610aa491908888612228565b86610b0657600160105460ff166003811115610abc57fe5b1415610ae157600254610ae1906001600160a01b0316610adc848461234a565b611f60565b600254610b01906001600160a01b031633610afc858561234a565b61210a565b610b59565b600260105460ff166003811115610b1957fe5b1415610b3e57600254610b3e906001600160a01b0316610b39848461234a565b6123a4565b600354610b59906001600160a01b031633610afc858561234a565b6040805188151581526020810188905280820187905290517ffedb0622d5d5fa46cc706a5c2c169f2bf2eb31a59ff2f70cef3096376f58c2c09181900360600190a150506017805460ff60a01b1916600160a01b1790555050505050565b60065481565b601054600d54600b54600c5460ff909316926002846003811115610bdd57fe5b148015610bf25750610bef838261234a565b42115b15610bff57610bff6118e7565b6001846003811115610c0d57fe5b148015610c225750610c1f838361234a565b42115b15610c2f57610c2f610f13565b505050505050565b60146020526000908152604090205481565b601754600160a01b900460ff161515600114610c9a576040805162461bcd60e51b81526020600482015260166024820152600080516020612fa4833981519152604482015290519081900360640190fd5b6017805460ff60a01b19169055600360105460ff166003811115610cba57fe5b1415610d0d576040805162461bcd60e51b815260206004820152601f60248201527f4c6f73736c6573735632506f6f6c3a20504f4f4c205445524d494e4154454400604482015290519081900360640190fd5b60008111610d50576040805162461bcd60e51b815260206004820152601e6024820152600080516020612f5a833981519152604482015290519081900360640190fd5b600254604080516370a0823160e01b8152336004820152905183926001600160a01b0316916370a08231916024808301926020929190829003018186803b158015610d9a57600080fd5b505afa158015610dae573d6000803e3d6000fd5b505050506040513d6020811015610dc457600080fd5b50511015610e035760405162461bcd60e51b815260040180806020018281038252602481526020018061301a6024913960400191505060405180910390fd5b600254610e1b906001600160a01b03163330846124a8565b600160105460ff166003811115610e2e57fe5b1415610e4a57600254610e4a906001600160a01b0316826123a4565b601754604080516340c10f1960e01b81523360048201526024810184905290516001600160a01b03909216916340c10f19916044808201926020929091908290030181600087803b158015610e9e57600080fd5b505af1158015610eb2573d6000803e3d6000fd5b505050506040513d6020811015610ec857600080fd5b50506040805182815290517f40b61effeb22345307b6b4acfbb4580925caf61a4b62d8672e9f3d1214d3479d9181900360200190a1506017805460ff60a01b1916600160a01b179055565b601754600160a01b900460ff161515600114610f64576040805162461bcd60e51b81526020600482015260166024820152600080516020612fa4833981519152604482015290519081900360640190fd5b6017805460ff60a01b19169055600b54600d54610f809161234a565b804211610fbe5760405162461bcd60e51b8152600401808060200182810382526027815260200180612f126027913960400191505060405180910390fd5b600160105460ff166003811115610fd157fe5b14611011576040805162461bcd60e51b815260206004820152601c6024820152600080516020612fc4833981519152604482015290519081900360640190fd5b600a5461101f90600161234a565b600a5542600d556009805461ff00191661010017905560108054600260ff1990911681179091555461105b906001600160a01b03166000611f60565b611063612502565b600f819055600e541361107f576009805460ff1916905561108d565b6009805460ff191660011790555b600061111b612710610a5e600654601560009054906101000a90046001600160a01b03166001600160a01b03166318160ddd6040518163ffffffff1660e01b815260040160206040518083038186803b1580156110e957600080fd5b505afa1580156110fd573d6000803e3d6000fd5b505050506040513d602081101561111357600080fd5b505190612161565b90506000611179612710610a5e600754601660009054906101000a90046001600160a01b03166001600160a01b03166318160ddd6040518163ffffffff1660e01b815260040160206040518083038186803b1580156110e957600080fd5b905060006111d7612710610a5e612710601760009054906101000a90046001600160a01b03166001600160a01b03166318160ddd6040518163ffffffff1660e01b815260040160206040518083038186803b1580156110e957600080fd5b905060006111ef6111e8848461234a565b859061234a565b600254604080516370a0823160e01b8152306004820152905192935083926001600160a01b03909216916370a0823191602480820192602092909190829003018186803b15801561123f57600080fd5b505afa158015611253573d6000803e3d6000fd5b505050506040513d602081101561126957600080fd5b5051101561127b576000600855611302565b600254604080516370a0823160e01b815230600482015290516112fe9284926001600160a01b03909116916370a0823191602480820192602092909190829003018186803b1580156112cc57600080fd5b505afa1580156112e0573d6000803e3d6000fd5b505050506040513d60208110156112f657600080fd5b505190612592565b6008555b61130c84846125ef565b600954600e54600f546040805160ff90941615158452602084019290925282820152517f363f3c6d2f590883f657a36adeb0d1b0440383e505ebfc904e41834f2c6eba889181900360600190a150506017805460ff60a01b1916600160a01b179055505050565b601054600d54600b54600c5460009360609360ff909116929091600284600381111561139b57fe5b1480156113b057506113ad838261234a565b42115b156113be57600195506113f4565b60018460038111156113cc57fe5b1480156113e157506113de838361234a565b42115b156113ef57600195506113f4565b600095505b87878080601f016020809104026020016040519081016040528093929190818152602001838380828437600092019190915250989b929a509198505050505050505050565b600754601654604080516370a0823160e01b81526001600160a01b03858116600483015291516000946114989461271094610a5e9492939116916370a08231916024808301926020929190829003018186803b1580156110e957600080fd5b92915050565b6000546001600160a01b031633146114fd576040805162461bcd60e51b815260206004820152601f60248201527f4c6f73736c6573735632466163746f72793a20464143544f5259204f4e4c5900604482015290519081900360640190fd5b600260105460ff16600381111561151057fe5b14611550576040805162461bcd60e51b815260206004820152601c6024820152600080516020612fc4833981519152604482015290519081900360640190fd5b601080546003919060ff1916600183610691565b6003546001600160a01b031681565b60075481565b61271081565b601754600160a01b900460ff1615156001146115d0576040805162461bcd60e51b81526020600482015260166024820152600080516020612fa4833981519152604482015290519081900360640190fd5b6017805460ff60a01b19169055600260105460ff1660038111156115f057fe5b14611630576040805162461bcd60e51b815260206004820152601c6024820152600080516020612fc4833981519152604482015290519081900360640190fd5b601554604080516370a0823160e01b815233600482015290516000926001600160a01b0316916370a08231916024808301926020929190829003018186803b15801561167b57600080fd5b505afa15801561168f573d6000803e3d6000fd5b505050506040513d60208110156116a557600080fd5b5051601654604080516370a0823160e01b815233600482015290519293506000926001600160a01b03909216916370a0823191602480820192602092909190829003018186803b1580156116f857600080fd5b505afa15801561170c573d6000803e3d6000fd5b505050506040513d602081101561172257600080fd5b505190506000846117335782611735565b815b90506000841180156117475750808411155b6117825760405162461bcd60e51b815260040180806020018281038252602481526020018061301a6024913960400191505060405180910390fd5b600185151514156117c85761179b600033600087612228565b6117c36000336117bc600654610a5e6007548a61216190919063ffffffff16565b60006128e2565b6117fe565b6117d6600033866000612228565b6117fe60003360006117f9600754610a5e6006548b61216190919063ffffffff16565b6128e2565b50506017805460ff60a01b1916600160a01b179055505050565b6000546001600160a01b03163314611877576040805162461bcd60e51b815260206004820152601f60248201527f4c6f73736c6573735632466163746f72793a20464143544f5259204f4e4c5900604482015290519081900360640190fd5b601280546001600160a01b039485166001600160a01b03199182168117909255601180549486169482168517905560138054939095169281168317909455601580548516909117905560168054841690921790915560178054909216179055565b6000546001600160a01b031681565b601754600160a01b900460ff161515600114611938576040805162461bcd60e51b81526020600482015260166024820152600080516020612fa4833981519152604482015290519081900360640190fd5b6017805460ff60a01b19169055600c54600d546119549161234a565b8042116119925760405162461bcd60e51b8152600401808060200182810382526027815260200180612f126027913960400191505060405180910390fd5b600260105460ff1660038111156119a557fe5b146119e5576040805162461bcd60e51b815260206004820152601c6024820152600080516020612fc4833981519152604482015290519081900360640190fd5b601560009054906101000a90046001600160a01b03166001600160a01b03166318160ddd6040518163ffffffff1660e01b815260040160206040518083038186803b158015611a3357600080fd5b505afa158015611a47573d6000803e3d6000fd5b505050506040513d6020811015611a5d57600080fd5b505115801590611ae55750601660009054906101000a90046001600160a01b03166001600160a01b03166318160ddd6040518163ffffffff1660e01b815260040160206040518083038186803b158015611ab657600080fd5b505afa158015611aca573d6000803e3d6000fd5b505050506040513d6020811015611ae057600080fd5b505115155b611b36576040805162461bcd60e51b815260206004820152601f60248201527f4c6f73736c6573735632506f6f6c3a204e4f2046554e4420494e20504f4f4c00604482015290519081900360640190fd5b42600d5560095460ff61010090910416151560011415611b6757611b58612502565b600e556009805461ff00191690555b6010805460ff19166001179055600254604080516370a0823160e01b81523060048201529051611bf4926001600160a01b03169182916370a0823191602480820192602092909190829003018186803b158015611bc357600080fd5b505afa158015611bd7573d6000803e3d6000fd5b505050506040513d6020811015611bed57600080fd5b50516123a4565b506017805460ff60a01b1916600160a01b179055565b6002546001600160a01b031681565b6001546001600160a01b031681565b601754600160a01b900460ff161515600114611c79576040805162461bcd60e51b81526020600482015260166024820152600080516020612fa4833981519152604482015290519081900360640190fd5b6017805460ff60a01b19169055600260105460ff166003811115611c9957fe5b14611cd9576040805162461bcd60e51b815260206004820152601c6024820152600080516020612fc4833981519152604482015290519081900360640190fd5b6000821180611ce85750600081115b611d27576040805162461bcd60e51b815260206004820152601e6024820152600080516020612f5a833981519152604482015290519081900360640190fd5b60095460ff61010090910416151560011415611d5457611d45612502565b600e556009805461ff00191690555b601554604080516370a0823160e01b815233600482015290516001600160a01b03909216916370a0823191602480820192602092909190829003018186803b158015611d9f57600080fd5b505afa158015611db3573d6000803e3d6000fd5b505050506040513d6020811015611dc957600080fd5b5051158015611e4c5750601654604080516370a0823160e01b815233600482015290516001600160a01b03909216916370a0823191602480820192602092909190829003018186803b158015611e1e57600080fd5b505afa158015611e32573d6000803e3d6000fd5b505050506040513d6020811015611e4857600080fd5b5051155b15611e64573360009081526014602052604090204290555b600254611e85906001600160a01b03163330611e80868661234a565b6124a8565b611e9260013384846128e2565b604080518381526020810183905281517fa3af609bf46297028ce551832669030f9effef2b02606d02cbbcc40fe6b47c55929181900390910190a150506017805460ff60a01b1916600160a01b179055565b600654601554604080516370a0823160e01b81526001600160a01b03858116600483015291516000946114989461271094610a5e9492939116916370a08231916024808301926020929190829003018186803b1580156110e957600080fd5b6011546012546013546001600160a01b0392831692918216911683565b6000600460009054906101000a90046001600160a01b03166001600160a01b0316630261bf8b6040518163ffffffff1660e01b815260040160206040518083038186803b158015611fb057600080fd5b505afa158015611fc4573d6000803e3d6000fd5b505050506040513d6020811015611fda57600080fd5b5051905080611fe8846129fe565b600380546001600160a01b0319166001600160a01b03929092169190911790558261208757600354604080516370a0823160e01b815230600482015290516001600160a01b03909216916370a0823191602480820192602092909190829003018186803b15801561205857600080fd5b505afa15801561206c573d6000803e3d6000fd5b505050506040513d602081101561208257600080fd5b505192505b60408051631a4ca37b60e21b81526001600160a01b038681166004830152602482018690523060448301529151918316916369328dec916064808201926020929091908290030181600087803b1580156120e057600080fd5b505af11580156120f4573d6000803e3d6000fd5b505050506040513d6020811015610c2f57600080fd5b604080516001600160a01b038416602482015260448082018490528251808303909101815260649091019091526020810180516001600160e01b031663a9059cbb60e01b17905261215c908490612b0a565b505050565b60008261217057506000611498565b8282028284828161217d57fe5b04146121ba5760405162461bcd60e51b8152600401808060200182810382526021815260200180612f396021913960400191505060405180910390fd5b9392505050565b6000808211612217576040805162461bcd60e51b815260206004820152601a60248201527f536166654d6174683a206469766973696f6e206279207a65726f000000000000604482015290519081900360640190fd5b81838161222057fe5b049392505050565b6001841515141561225f5760065461224690610a5e84612710612161565b60075490925061225c90610a5e83612710612161565b90505b81156122e85760155460408051632770a7eb60e21b81526001600160a01b0386811660048301526024820186905291519190921691639dc29fac9160448083019260209291908290030181600087803b1580156122bb57600080fd5b505af11580156122cf573d6000803e3d6000fd5b505050506040513d60208110156122e557600080fd5b50505b80156123445760165460408051632770a7eb60e21b81526001600160a01b0386811660048301526024820185905291519190921691639dc29fac9160448083019260209291908290030181600087803b1580156120e057600080fd5b50505050565b6000828201838110156121ba576040805162461bcd60e51b815260206004820152601b60248201527f536166654d6174683a206164646974696f6e206f766572666c6f770000000000604482015290519081900360640190fd5b6000600460009054906101000a90046001600160a01b03166001600160a01b0316630261bf8b6040518163ffffffff1660e01b815260040160206040518083038186803b1580156123f457600080fd5b505afa158015612408573d6000803e3d6000fd5b505050506040513d602081101561241e57600080fd5b505190508061242e848285612bbb565b6040805163e8eda9df60e01b81526001600160a01b0386811660048301526024820186905230604483015260006064830181905292519084169263e8eda9df926084808201939182900301818387803b15801561248a57600080fd5b505af115801561249e573d6000803e3d6000fd5b5050505050505050565b604080516001600160a01b0380861660248301528416604482015260648082018490528251808303909101815260849091019091526020810180516001600160e01b03166323b872dd60e01b179052612344908590612b0a565b600080600080600080600560009054906101000a90046001600160a01b03166001600160a01b031663feaf968c6040518163ffffffff1660e01b815260040160a06040518083038186803b15801561255957600080fd5b505afa15801561256d573d6000803e3d6000fd5b505050506040513d60a081101561258357600080fd5b50602001519550505050505090565b6000828211156125e9576040805162461bcd60e51b815260206004820152601e60248201527f536166654d6174683a207375627472616374696f6e206f766572666c6f770000604482015290519081900360640190fd5b50900390565b60008060009054906101000a90046001600160a01b03166001600160a01b031663017e7e586040518163ffffffff1660e01b815260040160206040518083038186803b15801561263e57600080fd5b505afa158015612652573d6000803e3d6000fd5b505050506040513d602081101561266857600080fd5b50516000805460408051631ff5bc5760e21b8152905193945091926001600160a01b0390911691637fd6f15c916004808301926020929190829003018186803b1580156126b457600080fd5b505afa1580156126c8573d6000803e3d6000fd5b505050506040513d60208110156126de57600080fd5b50516008549091506000906126fb9061271090610a5e9085612161565b9050811580159061271457506001600160a01b03831615155b15612740576008546127269082612592565b600855600254612740906001600160a01b0316848361210a565b60095460ff161515600114156127f15760085461275e90869061234a565b94506127e9601560009054906101000a90046001600160a01b03166001600160a01b03166318160ddd6040518163ffffffff1660e01b815260040160206040518083038186803b1580156127b157600080fd5b505afa1580156127c5573d6000803e3d6000fd5b505050506040513d60208110156127db57600080fd5b5051610a5e87612710612161565b600655612898565b60095460ff166128985760085461280990859061234a565b9350612894601660009054906101000a90046001600160a01b03166001600160a01b03166318160ddd6040518163ffffffff1660e01b815260040160206040518083038186803b15801561285c57600080fd5b505afa158015612870573d6000803e3d6000fd5b505050506040513d602081101561288657600080fd5b5051610a5e86612710612161565b6007555b7f3b18646b3983733450bdfbad0272e569b970aa8e53a92ab463689709f0bc4c0e600654600754604051808381526020018281526020019250505060405180910390a15050505050565b600184151514156129195760065461290090610a5e84612710612161565b60075490925061291690610a5e83612710612161565b90505b81156129a257601554604080516340c10f1960e01b81526001600160a01b03868116600483015260248201869052915191909216916340c10f199160448083019260209291908290030181600087803b15801561297557600080fd5b505af1158015612989573d6000803e3d6000fd5b505050506040513d602081101561299f57600080fd5b50505b801561234457601654604080516340c10f1960e01b81526001600160a01b03868116600483015260248201859052915191909216916340c10f199160448083019260209291908290030181600087803b1580156120e057600080fd5b60048054604080516321f8a72160e01b8152600160f81b9381018490529051600093600193909285926001600160a01b03909216916321f8a72191602480820192602092909190829003018186803b158015612a5957600080fd5b505afa158015612a6d573d6000803e3d6000fd5b505050506040513d6020811015612a8357600080fd5b5051604080516334924edb60e21b81526001600160a01b038881166004830152915192935083929183169163d2493b6c91602480820192606092909190829003018186803b158015612ad457600080fd5b505afa158015612ae8573d6000803e3d6000fd5b505050506040513d6060811015612afe57600080fd5b50519695505050505050565b6060612b5f826040518060400160405280602081526020017f5361666545524332303a206c6f772d6c6576656c2063616c6c206661696c6564815250856001600160a01b0316612cce9092919063ffffffff16565b80519091501561215c57808060200190516020811015612b7e57600080fd5b505161215c5760405162461bcd60e51b815260040180806020018281038252602a815260200180612f7a602a913960400191505060405180910390fd5b801580612c41575060408051636eb1769f60e11b81523060048201526001600160a01b03848116602483015291519185169163dd62ed3e91604480820192602092909190829003018186803b158015612c1357600080fd5b505afa158015612c27573d6000803e3d6000fd5b505050506040513d6020811015612c3d57600080fd5b5051155b612c7c5760405162461bcd60e51b8152600401808060200182810382526036815260200180612fe46036913960400191505060405180910390fd5b604080516001600160a01b038416602482015260448082018490528251808303909101815260649091019091526020810180516001600160e01b031663095ea7b360e01b17905261215c908490612b0a565b6060612cdd8484600085612ce5565b949350505050565b606082471015612d265760405162461bcd60e51b8152600401808060200182810382526026815260200180612eec6026913960400191505060405180910390fd5b612d2f85612e41565b612d80576040805162461bcd60e51b815260206004820152601d60248201527f416464726573733a2063616c6c20746f206e6f6e2d636f6e7472616374000000604482015290519081900360640190fd5b60006060866001600160a01b031685876040518082805190602001908083835b60208310612dbf5780518252601f199092019160209182019101612da0565b6001836020036101000a03801982511681845116808217855250505050505090500191505060006040518083038185875af1925050503d8060008114612e21576040519150601f19603f3d011682016040523d82523d6000602084013e612e26565b606091505b5091509150612e36828286612e47565b979650505050505050565b3b151590565b60608315612e565750816121ba565b825115612e665782518084602001fd5b8160405162461bcd60e51b81526004018080602001828103825283818151815260200191508051906020019080838360005b83811015612eb0578181015183820152602001612e98565b50505050905090810190601f168015612edd5780820380516001836020036101000a031916815260200191505b509250505060405180910390fdfe416464726573733a20696e73756666696369656e742062616c616e636520666f722063616c6c4c6f73736c6573735632506f6f6c3a20494e56414c49442054494d455354414d50204146544552536166654d6174683a206d756c7469706c69636174696f6e206f766572666c6f774c6f73736c6573735632506f6f6c3a20494e56414c494420414d4f554e5400005361666545524332303a204552433230206f7065726174696f6e20646964206e6f7420737563636565644c6f73736c6573735632506f6f6c3a204c4f434b4544000000000000000000004c6f73736c6573735632506f6f6c3a2057524f4e4720535441545553000000005361666545524332303a20617070726f76652066726f6d206e6f6e2d7a65726f20746f206e6f6e2d7a65726f20616c6c6f77616e63654c6f73736c6573735632506f6f6c3a20494e53554646494349454e542042414c414e4345a26469706673582212200a2d2bfbc43f1bce399f3a815625de49b59a62cb8e6e882912b09836302f927164736f6c634300060c0033",
    "linkReferences": {},
    "deployedLinkReferences": {}
}